{
  "_format": "hh-sol-artifact-1",
  "contractName": "TestVault",
  "sourceName": "contracts/TestVault.sol",
  "abi": [
    {
      "inputs": [
        {
          "internalType": "address",
          "name": "_staking",
          "type": "address"
        }
      ],
      "stateMutability": "nonpayable",
      "type": "constructor"
    },
    {
      "anonymous": false,
      "inputs": [
        {
          "indexed": false,
          "internalType": "address",
          "name": "",
          "type": "address"
        },
        {
          "indexed": false,
          "internalType": "uint256",
          "name": "",
          "type": "uint256"
        }
      ],
      "name": "Deposited",
      "type": "event"
    },
    {
      "anonymous": false,
      "inputs": [
        {
          "indexed": false,
          "internalType": "address",
          "name": "",
          "type": "address"
        },
        {
          "indexed": false,
          "internalType": "uint256",
          "name": "",
          "type": "uint256"
        }
      ],
      "name": "Withdrawn",
      "type": "event"
    },
    {
      "inputs": [
        {
          "internalType": "uint256",
          "name": "amount",
          "type": "uint256"
        }
      ],
      "name": "Deposit",
      "outputs": [],
      "stateMutability": "nonpayable",
      "type": "function"
    },
    {
      "inputs": [
        {
          "internalType": "uint256",
          "name": "amount",
          "type": "uint256"
        }
      ],
      "name": "Withdraw",
      "outputs": [],
      "stateMutability": "nonpayable",
      "type": "function"
    },
    {
      "inputs": [],
      "name": "highestUsers",
      "outputs": [
        {
          "internalType": "address[2]",
          "name": "",
          "type": "address[2]"
        }
      ],
      "stateMutability": "view",
      "type": "function"
    },
    {
      "inputs": [
        {
          "internalType": "address",
          "name": "",
          "type": "address"
        }
      ],
      "name": "regNum",
      "outputs": [
        {
          "internalType": "uint256",
          "name": "",
          "type": "uint256"
        }
      ],
      "stateMutability": "view",
      "type": "function"
    },
    {
      "inputs": [],
      "name": "staking",
      "outputs": [
        {
          "internalType": "address",
          "name": "",
          "type": "address"
        }
      ],
      "stateMutability": "view",
      "type": "function"
    }
  ],
  "bytecode": "0x60a06040523480156200001157600080fd5b5060405162001b9238038062001b92833981810160405281019062000037919062000201565b60016000819055506200005b67b1e45a1905b97fc860c01b6200019460201b60201c565b6200007767846817db6dc7a8e360c01b6200019460201b60201c565b62000093673694703e4587ef4960c01b6200019460201b60201c565b620000af67ccf27c85ec05fc8360c01b6200019460201b60201c565b600073ffffffffffffffffffffffffffffffffffffffff168173ffffffffffffffffffffffffffffffffffffffff160362000121576040517f08c379a0000000000000000000000000000000000000000000000000000000008152600401620001189062000294565b60405180910390fd5b6200013d67023b856b2a962fae60c01b6200019460201b60201c565b6200015967825a551214d5687860c01b6200019460201b60201c565b8073ffffffffffffffffffffffffffffffffffffffff1660808173ffffffffffffffffffffffffffffffffffffffff168152505050620002b6565b50565b600080fd5b600073ffffffffffffffffffffffffffffffffffffffff82169050919050565b6000620001c9826200019c565b9050919050565b620001db81620001bc565b8114620001e757600080fd5b50565b600081519050620001fb81620001d0565b92915050565b6000602082840312156200021a576200021962000197565b5b60006200022a84828501620001ea565b91505092915050565b600082825260208201905092915050565b7f494e56414c49445f544f4b454e00000000000000000000000000000000000000600082015250565b60006200027c600d8362000233565b9150620002898262000244565b602082019050919050565b60006020820190508181036000830152620002af816200026d565b9050919050565b6080516118b2620002e060003960008181610102015281816101dd015261082801526118b26000f3fe608060405234801561001057600080fd5b50600436106100575760003560e01c80634cf088d91461005c5780634d6ce1e51461007a5780635b6b431d14610096578063c8b37c76146100b2578063d45e85ea146100d0575b600080fd5b610064610100565b60405161007191906110f9565b60405180910390f35b610094600480360381019061008f919061114f565b610124565b005b6100b060048036038101906100ab919061114f565b610552565b005b6100ba6108da565b6040516100c79190611227565b60405180910390f35b6100ea60048036038101906100e5919061126e565b610c92565b6040516100f791906112aa565b60405180910390f35b7f000000000000000000000000000000000000000000000000000000000000000081565b61013867348d83ad3f6ab32f60c01b610caa565b60026000540361017d576040517f08c379a000000000000000000000000000000000000000000000000000000000815260040161017490611322565b60405180910390fd5b6002600081905550610199677c1d87b8811b9db960c01b610caa565b6101ad672c30af7ef22e264760c01b610caa565b6101c167c02736f3d12103b460c01b610caa565b6101d567d4ad149d8f5f6e1e60c01b610caa565b6102223330837f000000000000000000000000000000000000000000000000000000000000000073ffffffffffffffffffffffffffffffffffffffff16610cad909392919063ffffffff16565b6102366717d8e2061cb0d1ef60c01b610caa565b61024a6782d030bca837e65560c01b610caa565b6000600260003373ffffffffffffffffffffffffffffffffffffffff1673ffffffffffffffffffffffffffffffffffffffff1681526020019081526020016000205490506102a2677545d3dc55fd0ed760c01b610caa565b6102b66754cc3266f45f231960c01b610caa565b60008103610475576102d16670a261e9e8a2ca60c01b610caa565b6102e5678f45aea7094d868c60c01b610caa565b6102f967eac38c23eadcdcaa60c01b610caa565b610301611039565b610315672deeaa2044db5f4060c01b610caa565b33816000019073ffffffffffffffffffffffffffffffffffffffff16908173ffffffffffffffffffffffffffffffffffffffff168152505061036167db8492eca2c56d2960c01b610caa565b8281602001818152505061037f670cffee032227ab0060c01b610caa565b6103936797df6a1cc4bf960660c01b610caa565b600181908060018154018082558091505060019003906000526020600020906002020160009091909190915060008201518160000160006101000a81548173ffffffffffffffffffffffffffffffffffffffff021916908373ffffffffffffffffffffffffffffffffffffffff1602179055506020820151816001015550506104266752a43a18eb57280b60c01b610caa565b600180549050600260003373ffffffffffffffffffffffffffffffffffffffff1673ffffffffffffffffffffffffffffffffffffffff16815260200190815260200160002081905550506104e5565b6104896734a05aef19cc900760c01b610caa565b61049d6748a5be29d7bea2d160c01b610caa565b81600180836104ac9190611371565b815481106104bd576104bc6113a5565b5b906000526020600020906002020160010160008282546104dd91906113d4565b925050819055505b6104f967eaffdc5396b634b260c01b610caa565b61050d67ebc65b1917d1564460c01b610caa565b7f2da466a7b24304f47e87fa2e1e5a81b9831ce54fec19055ce277ca2f39ba42c4338360405161053e929190611408565b60405180910390a150600160008190555050565b61056667e8d704ab3ce5997960c01b610caa565b6002600054036105ab576040517f08c379a00000000000000000000000000000000000000000000000000000000081526004016105a290611322565b60405180910390fd5b60026000819055506105c76748cdd4c6783b610560c01b610caa565b6105db6776e4e5bc6402b70760c01b610caa565b6105ef67d1f9eeab62fb9f6960c01b610caa565b61060367c293ae42a195669460c01b610caa565b6000600260003373ffffffffffffffffffffffffffffffffffffffff1673ffffffffffffffffffffffffffffffffffffffff16815260200190815260200160002054905061065b670ae8a09ca8e9d05460c01b610caa565b61066f6752b2989a5bdd339b60c01b610caa565b6106836747abc139b207910560c01b610caa565b600081036106c6576040517f08c379a00000000000000000000000000000000000000000000000000000000081526004016106bd9061147d565b60405180910390fd5b6106da67bc6b7b8a565be6dc60c01b610caa565b6106ee67b4e77a7849f0182560c01b610caa565b610702678eb08aaa7d90b41360c01b610caa565b6000600180836107129190611371565b81548110610723576107226113a5565b5b9060005260206000209060020201905061074767437273a63cedab4360c01b610caa565b61075b67eaecaa7520776e6160c01b610caa565b61076f67400a4ac0c78fc95a60c01b610caa565b82816001015410156107b6576040517f08c379a00000000000000000000000000000000000000000000000000000000081526004016107ad906114e9565b60405180910390fd5b6107ca67148a937133fcf21a60c01b610caa565b6107de6709ea8b2d997e53e160c01b610caa565b828160010160008282546107f29190611371565b9250508190555061080d67a90da254517bb67c60c01b610caa565b61082167a2ec5c1fa9fbdc4c60c01b610caa565b61086c33847f000000000000000000000000000000000000000000000000000000000000000073ffffffffffffffffffffffffffffffffffffffff16610d369092919063ffffffff16565b6108806724ed2d72143776a060c01b610caa565b610894677c2d7278a82934b660c01b610caa565b7f7084f5476618d8e60b11ef0d7d3f06914655adb8793e28ff7f018d4c76d505d533846040516108c5929190611408565b60405180910390a15050600160008190555050565b6108e2611069565b6108f6673fc8b33e70a1c8bf60c01b610caa565b61090a67ca1d7be3e98e303e60c01b610caa565b61091e67f7e74d28a1e80c1160c01b610caa565b61092661108b565b61093a67906eae2d6090af3660c01b610caa565b61094e671421c64efb9fdb0460c01b610caa565b60005b600180549050811015610bbe57610972675e9731a68b2312db60c01b610caa565b61098667aad1b5c24888bf5860c01b610caa565b60006001828154811061099c5761099b6113a5565b5b90600052602060002090600202016040518060400160405290816000820160009054906101000a900473ffffffffffffffffffffffffffffffffffffffff1673ffffffffffffffffffffffffffffffffffffffff1673ffffffffffffffffffffffffffffffffffffffff1681526020016001820154815250509050610a2b671766b8aec378bf9b60c01b610caa565b610a3f67dc4c6479c61f986a60c01b610caa565b82600060028110610a5357610a526113a5565b5b60200201516020015181602001511115610afa57610a7b6786f6a2dc46335d1960c01b610caa565b610a8f67db19d26e434157af60c01b610caa565b82600060028110610aa357610aa26113a5565b5b602002015183600160028110610abc57610abb6113a5565b5b6020020181905250610ad8674d9eea3a8ab67be960c01b610caa565b8083600060028110610aed57610aec6113a5565b5b6020020181905250610baa565b610b0e67fbc2072d99c25fd260c01b610caa565b610b2267414c62c783dcdc1460c01b610caa565b82600160028110610b3657610b356113a5565b5b60200201516020015181602001511115610b9457610b5e67929b228df4269cf660c01b610caa565b610b726762cbb80f848d54e860c01b610caa565b8083600160028110610b8757610b866113a5565b5b6020020181905250610ba9565b610ba867ab8bf2ce4205c8b860c01b610caa565b5b5b508080610bb690611509565b915050610951565b50610bd3671f797fdebe2e64fd60c01b610caa565b610be767b89a589ad3eadb4960c01b610caa565b604051806040016040528082600060028110610c0657610c056113a5565b5b60200201516000015173ffffffffffffffffffffffffffffffffffffffff1673ffffffffffffffffffffffffffffffffffffffff16815260200182600160028110610c5457610c536113a5565b5b60200201516000015173ffffffffffffffffffffffffffffffffffffffff1673ffffffffffffffffffffffffffffffffffffffff1681525091505090565b60026020528060005260406000206000915090505481565b50565b610d30846323b872dd60e01b858585604051602401610cce93929190611551565b604051602081830303815290604052907bffffffffffffffffffffffffffffffffffffffffffffffffffffffff19166020820180517bffffffffffffffffffffffffffffffffffffffffffffffffffffffff8381831617835250505050610dbc565b50505050565b610db78363a9059cbb60e01b8484604051602401610d55929190611408565b604051602081830303815290604052907bffffffffffffffffffffffffffffffffffffffffffffffffffffffff19166020820180517bffffffffffffffffffffffffffffffffffffffffffffffffffffffff8381831617835250505050610dbc565b505050565b6000610e1e826040518060400160405280602081526020017f5361666545524332303a206c6f772d6c6576656c2063616c6c206661696c65648152508573ffffffffffffffffffffffffffffffffffffffff16610e839092919063ffffffff16565b9050600081511115610e7e5780806020019051810190610e3e91906115c0565b610e7d576040517f08c379a0000000000000000000000000000000000000000000000000000000008152600401610e749061165f565b60405180910390fd5b5b505050565b6060610e928484600085610e9b565b90509392505050565b606082471015610ee0576040517f08c379a0000000000000000000000000000000000000000000000000000000008152600401610ed7906116f1565b60405180910390fd5b610ee985610faf565b610f28576040517f08c379a0000000000000000000000000000000000000000000000000000000008152600401610f1f9061175d565b60405180910390fd5b6000808673ffffffffffffffffffffffffffffffffffffffff168587604051610f5191906117ee565b60006040518083038185875af1925050503d8060008114610f8e576040519150601f19603f3d011682016040523d82523d6000602084013e610f93565b606091505b5091509150610fa3828286610fd2565b92505050949350505050565b6000808273ffffffffffffffffffffffffffffffffffffffff163b119050919050565b60608315610fe257829050611032565b600083511115610ff55782518084602001fd5b816040517f08c379a0000000000000000000000000000000000000000000000000000000008152600401611029919061185a565b60405180910390fd5b9392505050565b6040518060400160405280600073ffffffffffffffffffffffffffffffffffffffff168152602001600081525090565b6040518060400160405280600290602082028036833780820191505090505090565b60405180604001604052806002905b6110a2611039565b81526020019060019003908161109a5790505090565b600073ffffffffffffffffffffffffffffffffffffffff82169050919050565b60006110e3826110b8565b9050919050565b6110f3816110d8565b82525050565b600060208201905061110e60008301846110ea565b92915050565b600080fd5b6000819050919050565b61112c81611119565b811461113757600080fd5b50565b60008135905061114981611123565b92915050565b60006020828403121561116557611164611114565b5b60006111738482850161113a565b91505092915050565b600060029050919050565b600081905092915050565b6000819050919050565b6111a5816110d8565b82525050565b60006111b7838361119c565b60208301905092915050565b6000602082019050919050565b6111d98161117c565b6111e38184611187565b92506111ee82611192565b8060005b8381101561121f57815161120687826111ab565b9650611211836111c3565b9250506001810190506111f2565b505050505050565b600060408201905061123c60008301846111d0565b92915050565b61124b816110d8565b811461125657600080fd5b50565b60008135905061126881611242565b92915050565b60006020828403121561128457611283611114565b5b600061129284828501611259565b91505092915050565b6112a481611119565b82525050565b60006020820190506112bf600083018461129b565b92915050565b600082825260208201905092915050565b7f5265656e7472616e637947756172643a207265656e7472616e742063616c6c00600082015250565b600061130c601f836112c5565b9150611317826112d6565b602082019050919050565b6000602082019050818103600083015261133b816112ff565b9050919050565b7f4e487b7100000000000000000000000000000000000000000000000000000000600052601160045260246000fd5b600061137c82611119565b915061138783611119565b925082820390508181111561139f5761139e611342565b5b92915050565b7f4e487b7100000000000000000000000000000000000000000000000000000000600052603260045260246000fd5b60006113df82611119565b91506113ea83611119565b925082820190508082111561140257611401611342565b5b92915050565b600060408201905061141d60008301856110ea565b61142a602083018461129b565b9392505050565b7f4e4f5f544f4b454e535f544f5f57495448445241570000000000000000000000600082015250565b60006114676015836112c5565b915061147282611431565b602082019050919050565b600060208201905081810360008301526114968161145a565b9050919050565b7f4e4f545f454e4f5547485f544f4b454e535f544f5f5749544844524157000000600082015250565b60006114d3601d836112c5565b91506114de8261149d565b602082019050919050565b60006020820190508181036000830152611502816114c6565b9050919050565b600061151482611119565b91507fffffffffffffffffffffffffffffffffffffffffffffffffffffffffffffffff820361154657611545611342565b5b600182019050919050565b600060608201905061156660008301866110ea565b61157360208301856110ea565b611580604083018461129b565b949350505050565b60008115159050919050565b61159d81611588565b81146115a857600080fd5b50565b6000815190506115ba81611594565b92915050565b6000602082840312156115d6576115d5611114565b5b60006115e4848285016115ab565b91505092915050565b7f5361666545524332303a204552433230206f7065726174696f6e20646964206e60008201527f6f74207375636365656400000000000000000000000000000000000000000000602082015250565b6000611649602a836112c5565b9150611654826115ed565b604082019050919050565b600060208201905081810360008301526116788161163c565b9050919050565b7f416464726573733a20696e73756666696369656e742062616c616e636520666f60008201527f722063616c6c0000000000000000000000000000000000000000000000000000602082015250565b60006116db6026836112c5565b91506116e68261167f565b604082019050919050565b6000602082019050818103600083015261170a816116ce565b9050919050565b7f416464726573733a2063616c6c20746f206e6f6e2d636f6e7472616374000000600082015250565b6000611747601d836112c5565b915061175282611711565b602082019050919050565b600060208201905081810360008301526117768161173a565b9050919050565b600081519050919050565b600081905092915050565b60005b838110156117b1578082015181840152602081019050611796565b60008484015250505050565b60006117c88261177d565b6117d28185611788565b93506117e2818560208601611793565b80840191505092915050565b60006117fa82846117bd565b915081905092915050565b600081519050919050565b6000601f19601f8301169050919050565b600061182c82611805565b61183681856112c5565b9350611846818560208601611793565b61184f81611810565b840191505092915050565b600060208201905081810360008301526118748184611821565b90509291505056fea264697066735822122005c936673c8b3fe997f5d723fa69f11f6de4eca6bff9cfcc4cf15d03c1aa84cc64736f6c63430008100033",
  "linkReferences": {},
  "deployedLinkReferences": {}
}